{
  "_format": "hh-sol-artifact-1",
  "contractName": "LandRegistery",
  "sourceName": "contracts/LandRegistery.sol",
  "abi": [
    {
      "inputs": [],
      "stateMutability": "nonpayable",
      "type": "constructor"
    },
    {
      "anonymous": false,
      "inputs": [
        {
          "indexed": true,
          "internalType": "uint256",
          "name": "landId",
          "type": "uint256"
        },
        {
          "indexed": true,
          "internalType": "address",
          "name": "owner",
          "type": "address"
        },
        {
          "indexed": false,
          "internalType": "string",
          "name": "location",
          "type": "string"
        },
        {
          "indexed": false,
          "internalType": "string",
          "name": "area",
          "type": "string"
        },
        {
          "indexed": false,
          "internalType": "string",
          "name": "dimensionOfLand",
          "type": "string"
        },
        {
          "indexed": false,
          "internalType": "string",
          "name": "landIdentificationNumber",
          "type": "string"
        },
        {
          "indexed": false,
          "internalType": "enum LandRegistery.LandType",
          "name": "landType",
          "type": "uint8"
        }
      ],
      "name": "LandRegistered",
      "type": "event"
    },
    {
      "anonymous": false,
      "inputs": [
        {
          "indexed": true,
          "internalType": "uint256",
          "name": "landId",
          "type": "uint256"
        },
        {
          "indexed": true,
          "internalType": "address",
          "name": "from",
          "type": "address"
        },
        {
          "indexed": true,
          "internalType": "address",
          "name": "to",
          "type": "address"
        },
        {
          "indexed": false,
          "internalType": "string",
          "name": "transferAmount",
          "type": "string"
        }
      ],
      "name": "LandTransferred",
      "type": "event"
    },
    {
      "inputs": [
        {
          "internalType": "uint256",
          "name": "",
          "type": "uint256"
        }
      ],
      "name": "allLands",
      "outputs": [
        {
          "internalType": "uint256",
          "name": "landId",
          "type": "uint256"
        },
        {
          "internalType": "address",
          "name": "prevOwner",
          "type": "address"
        },
        {
          "internalType": "address",
          "name": "currentOwner",
          "type": "address"
        },
        {
          "internalType": "string",
          "name": "location",
          "type": "string"
        },
        {
          "internalType": "string",
          "name": "area",
          "type": "string"
        },
        {
          "internalType": "string",
          "name": "dimensionOfLand",
          "type": "string"
        },
        {
          "internalType": "string",
          "name": "landIdentificationNumber",
          "type": "string"
        },
        {
          "internalType": "enum LandRegistery.LandStatus",
          "name": "status",
          "type": "uint8"
        },
        {
          "internalType": "enum LandRegistery.LandType",
          "name": "landType",
          "type": "uint8"
        },
        {
          "internalType": "string",
          "name": "transferAmount",
          "type": "string"
        }
      ],
      "stateMutability": "view",
      "type": "function"
    },
    {
      "inputs": [
        {
          "internalType": "uint256",
          "name": "_landId",
          "type": "uint256"
        }
      ],
      "name": "getLandDetails",
      "outputs": [
        {
          "components": [
            {
              "internalType": "uint256",
              "name": "landId",
              "type": "uint256"
            },
            {
              "internalType": "address",
              "name": "prevOwner",
              "type": "address"
            },
            {
              "internalType": "address",
              "name": "currentOwner",
              "type": "address"
            },
            {
              "internalType": "string",
              "name": "location",
              "type": "string"
            },
            {
              "internalType": "string",
              "name": "area",
              "type": "string"
            },
            {
              "internalType": "string",
              "name": "dimensionOfLand",
              "type": "string"
            },
            {
              "internalType": "string",
              "name": "landIdentificationNumber",
              "type": "string"
            },
            {
              "internalType": "enum LandRegistery.LandStatus",
              "name": "status",
              "type": "uint8"
            },
            {
              "internalType": "enum LandRegistery.LandType",
              "name": "landType",
              "type": "uint8"
            },
            {
              "internalType": "string",
              "name": "transferAmount",
              "type": "string"
            }
          ],
          "internalType": "struct LandRegistery.Land",
          "name": "",
          "type": "tuple"
        }
      ],
      "stateMutability": "view",
      "type": "function"
    },
    {
      "inputs": [
        {
          "internalType": "address",
          "name": "_userAddress",
          "type": "address"
        }
      ],
      "name": "getUserLands",
      "outputs": [
        {
          "components": [
            {
              "internalType": "uint256",
              "name": "landId",
              "type": "uint256"
            },
            {
              "internalType": "address",
              "name": "prevOwner",
              "type": "address"
            },
            {
              "internalType": "address",
              "name": "currentOwner",
              "type": "address"
            },
            {
              "internalType": "string",
              "name": "location",
              "type": "string"
            },
            {
              "internalType": "string",
              "name": "area",
              "type": "string"
            },
            {
              "internalType": "string",
              "name": "dimensionOfLand",
              "type": "string"
            },
            {
              "internalType": "string",
              "name": "landIdentificationNumber",
              "type": "string"
            },
            {
              "internalType": "enum LandRegistery.LandStatus",
              "name": "status",
              "type": "uint8"
            },
            {
              "internalType": "enum LandRegistery.LandType",
              "name": "landType",
              "type": "uint8"
            },
            {
              "internalType": "string",
              "name": "transferAmount",
              "type": "string"
            }
          ],
          "internalType": "struct LandRegistery.Land[]",
          "name": "",
          "type": "tuple[]"
        }
      ],
      "stateMutability": "view",
      "type": "function"
    },
    {
      "inputs": [],
      "name": "owner",
      "outputs": [
        {
          "internalType": "address",
          "name": "",
          "type": "address"
        }
      ],
      "stateMutability": "view",
      "type": "function"
    },
    {
      "inputs": [
        {
          "internalType": "string",
          "name": "input",
          "type": "string"
        }
      ],
      "name": "parseAndConvert",
      "outputs": [
        {
          "internalType": "uint256",
          "name": "",
          "type": "uint256"
        }
      ],
      "stateMutability": "pure",
      "type": "function"
    },
    {
      "inputs": [
        {
          "internalType": "string",
          "name": "_location",
          "type": "string"
        },
        {
          "internalType": "string",
          "name": "_area",
          "type": "string"
        },
        {
          "internalType": "string",
          "name": "_dimensionOfLand",
          "type": "string"
        },
        {
          "internalType": "string",
          "name": "_landIdentificationNumber",
          "type": "string"
        },
        {
          "internalType": "enum LandRegistery.LandType",
          "name": "_landType",
          "type": "uint8"
        }
      ],
      "name": "registerLand",
      "outputs": [],
      "stateMutability": "nonpayable",
      "type": "function"
    },
    {
      "inputs": [
        {
          "internalType": "string",
          "name": "_landIdentificationNumber",
          "type": "string"
        },
        {
          "internalType": "address",
          "name": "_newOwner",
          "type": "address"
        },
        {
          "internalType": "string",
          "name": "_transferAmount",
          "type": "string"
        }
      ],
      "name": "transferLand",
      "outputs": [],
      "stateMutability": "nonpayable",
      "type": "function"
    },
    {
      "inputs": [
        {
          "internalType": "address",
          "name": "",
          "type": "address"
        },
        {
          "internalType": "uint256",
          "name": "",
          "type": "uint256"
        }
      ],
      "name": "userLands",
      "outputs": [
        {
          "internalType": "uint256",
          "name": "landId",
          "type": "uint256"
        },
        {
          "internalType": "address",
          "name": "prevOwner",
          "type": "address"
        },
        {
          "internalType": "address",
          "name": "currentOwner",
          "type": "address"
        },
        {
          "internalType": "string",
          "name": "location",
          "type": "string"
        },
        {
          "internalType": "string",
          "name": "area",
          "type": "string"
        },
        {
          "internalType": "string",
          "name": "dimensionOfLand",
          "type": "string"
        },
        {
          "internalType": "string",
          "name": "landIdentificationNumber",
          "type": "string"
        },
        {
          "internalType": "enum LandRegistery.LandStatus",
          "name": "status",
          "type": "uint8"
        },
        {
          "internalType": "enum LandRegistery.LandType",
          "name": "landType",
          "type": "uint8"
        },
        {
          "internalType": "string",
          "name": "transferAmount",
          "type": "string"
        }
      ],
      "stateMutability": "view",
      "type": "function"
    }
  ],
  "bytecode": "0x6080604052600060015534801561001557600080fd5b50336000806101000a81548173ffffffffffffffffffffffffffffffffffffffff021916908373ffffffffffffffffffffffffffffffffffffffff16021790555061313a806100656000396000f3fe608060405234801561001057600080fd5b50600436106100885760003560e01c80636623771e1161005b5780636623771e146101425780638da5cb5b1461015e578063dc219adc1461017c578063fe0cb7dc146101b557610088565b806322ff7c521461008d57806328bf5ef5146100a95780633ea73ae6146100d957806341697be014610109575b600080fd5b6100a760048036038101906100a29190612579565b6101e5565b005b6100c360048036038101906100be91906124d3565b610aa4565b6040516100d09190612b98565b60405180910390f35b6100f360048036038101906100ee9190612538565b610fe1565b6040516101009190612ced565b60405180910390f35b610123600480360381019061011e91906126cf565b610ff4565b6040516101399a99989796959493929190612d08565b60405180910390f35b61015c600480360381019061015791906125f8565b61134a565b005b6101666119aa565b6040516101739190612b7d565b60405180910390f35b610196600480360381019061019191906124fc565b6119ce565b6040516101ac9a99989796959493929190612d08565b60405180910390f35b6101cf60048036038101906101ca91906126cf565b611d41565b6040516101dc9190612ccb565b60405180910390f35b600073ffffffffffffffffffffffffffffffffffffffff168273ffffffffffffffffffffffffffffffffffffffff161415610255576040517f08c379a000000000000000000000000000000000000000000000000000000000815260040161024c90612c6b565b60405180910390fd5b600061026084610fe1565b905060006003600083815260200190815260200160002090503373ffffffffffffffffffffffffffffffffffffffff168160020160009054906101000a900473ffffffffffffffffffffffffffffffffffffffff1673ffffffffffffffffffffffffffffffffffffffff161461030b576040517f08c379a000000000000000000000000000000000000000000000000000000000815260040161030290612c8b565b60405180910390fd5b60016002811115610345577f4e487b7100000000000000000000000000000000000000000000000000000000600052602160045260246000fd5b8160070160009054906101000a900460ff16600281111561038f577f4e487b7100000000000000000000000000000000000000000000000000000000600052602160045260246000fd5b146103cf576040517f08c379a00000000000000000000000000000000000000000000000000000000081526004016103c690612c4b565b60405180910390fd5b8060020160009054906101000a900473ffffffffffffffffffffffffffffffffffffffff168160010160006101000a81548173ffffffffffffffffffffffffffffffffffffffff021916908373ffffffffffffffffffffffffffffffffffffffff160217905550838160020160006101000a81548173ffffffffffffffffffffffffffffffffffffffff021916908373ffffffffffffffffffffffffffffffffffffffff16021790555060028160070160006101000a81548160ff021916908360028111156104c7577f4e487b7100000000000000000000000000000000000000000000000000000000600052602160045260246000fd5b0217905550828160080190805190602001906104e492919061220d565b50600260003373ffffffffffffffffffffffffffffffffffffffff1673ffffffffffffffffffffffffffffffffffffffff168152602001908152602001600020819080600181540180825580915050600190039060005260206000209060090201600090919091909150600082015481600001556001820160009054906101000a900473ffffffffffffffffffffffffffffffffffffffff168160010160006101000a81548173ffffffffffffffffffffffffffffffffffffffff021916908373ffffffffffffffffffffffffffffffffffffffff1602179055506002820160009054906101000a900473ffffffffffffffffffffffffffffffffffffffff168160020160006101000a81548173ffffffffffffffffffffffffffffffffffffffff021916908373ffffffffffffffffffffffffffffffffffffffff160217905550600382018160030190805461063a90612f56565b610645929190612293565b50600482018160040190805461065a90612f56565b610665929190612293565b50600582018160050190805461067a90612f56565b610685929190612293565b50600682018160060190805461069a90612f56565b6106a5929190612293565b506007820160009054906101000a900460ff168160070160006101000a81548160ff02191690836002811115610704577f4e487b7100000000000000000000000000000000000000000000000000000000600052602160045260246000fd5b02179055506007820160019054906101000a900460ff168160070160016101000a81548160ff02191690836004811115610767577f4e487b7100000000000000000000000000000000000000000000000000000000600052602160045260246000fd5b0217905550600882018160080190805461078090612f56565b61078b929190612293565b505050600260008573ffffffffffffffffffffffffffffffffffffffff1673ffffffffffffffffffffffffffffffffffffffff168152602001908152602001600020819080600181540180825580915050600190039060005260206000209060090201600090919091909150600082015481600001556001820160009054906101000a900473ffffffffffffffffffffffffffffffffffffffff168160010160006101000a81548173ffffffffffffffffffffffffffffffffffffffff021916908373ffffffffffffffffffffffffffffffffffffffff1602179055506002820160009054906101000a900473ffffffffffffffffffffffffffffffffffffffff168160020160006101000a81548173ffffffffffffffffffffffffffffffffffffffff021916908373ffffffffffffffffffffffffffffffffffffffff16021790555060038201816003019080546108e390612f56565b6108ee929190612293565b50600482018160040190805461090390612f56565b61090e929190612293565b50600582018160050190805461092390612f56565b61092e929190612293565b50600682018160060190805461094390612f56565b61094e929190612293565b506007820160009054906101000a900460ff168160070160006101000a81548160ff021916908360028111156109ad577f4e487b7100000000000000000000000000000000000000000000000000000000600052602160045260246000fd5b02179055506007820160019054906101000a900460ff168160070160016101000a81548160ff02191690836004811115610a10577f4e487b7100000000000000000000000000000000000000000000000000000000600052602160045260246000fd5b02179055506008820181600801908054610a2990612f56565b610a34929190612293565b5050508373ffffffffffffffffffffffffffffffffffffffff163373ffffffffffffffffffffffffffffffffffffffff16837fc4047e06cead7bf10729ec5fd49ab0b51199099f985bd6bdbe3520655246381c86604051610a959190612bba565b60405180910390a45050505050565b6060600260008373ffffffffffffffffffffffffffffffffffffffff1673ffffffffffffffffffffffffffffffffffffffff168152602001908152602001600020805480602002602001604051908101604052809291908181526020016000905b82821015610fd6578382906000526020600020906009020160405180610140016040529081600082015481526020016001820160009054906101000a900473ffffffffffffffffffffffffffffffffffffffff1673ffffffffffffffffffffffffffffffffffffffff1673ffffffffffffffffffffffffffffffffffffffff1681526020016002820160009054906101000a900473ffffffffffffffffffffffffffffffffffffffff1673ffffffffffffffffffffffffffffffffffffffff1673ffffffffffffffffffffffffffffffffffffffff168152602001600382018054610bef90612f56565b80601f0160208091040260200160405190810160405280929190818152602001828054610c1b90612f56565b8015610c685780601f10610c3d57610100808354040283529160200191610c68565b820191906000526020600020905b815481529060010190602001808311610c4b57829003601f168201915b50505050508152602001600482018054610c8190612f56565b80601f0160208091040260200160405190810160405280929190818152602001828054610cad90612f56565b8015610cfa5780601f10610ccf57610100808354040283529160200191610cfa565b820191906000526020600020905b815481529060010190602001808311610cdd57829003601f168201915b50505050508152602001600582018054610d1390612f56565b80601f0160208091040260200160405190810160405280929190818152602001828054610d3f90612f56565b8015610d8c5780601f10610d6157610100808354040283529160200191610d8c565b820191906000526020600020905b815481529060010190602001808311610d6f57829003601f168201915b50505050508152602001600682018054610da590612f56565b80601f0160208091040260200160405190810160405280929190818152602001828054610dd190612f56565b8015610e1e5780601f10610df357610100808354040283529160200191610e1e565b820191906000526020600020905b815481529060010190602001808311610e0157829003601f168201915b505050505081526020016007820160009054906101000a900460ff166002811115610e72577f4e487b7100000000000000000000000000000000000000000000000000000000600052602160045260246000fd5b6002811115610eaa577f4e487b7100000000000000000000000000000000000000000000000000000000600052602160045260246000fd5b81526020016007820160019054906101000a900460ff166004811115610ef9577f4e487b7100000000000000000000000000000000000000000000000000000000600052602160045260246000fd5b6004811115610f31577f4e487b7100000000000000000000000000000000000000000000000000000000600052602160045260246000fd5b8152602001600882018054610f4590612f56565b80601f0160208091040260200160405190810160405280929190818152602001828054610f7190612f56565b8015610fbe5780601f10610f9357610100808354040283529160200191610fbe565b820191906000526020600020905b815481529060010190602001808311610fa157829003601f168201915b50505050508152505081526020019060010190610b05565b505050509050919050565b6000806020830151905080915050919050565b60036020528060005260406000206000915090508060000154908060010160009054906101000a900473ffffffffffffffffffffffffffffffffffffffff16908060020160009054906101000a900473ffffffffffffffffffffffffffffffffffffffff169080600301805461106990612f56565b80601f016020809104026020016040519081016040528092919081815260200182805461109590612f56565b80156110e25780601f106110b7576101008083540402835291602001916110e2565b820191906000526020600020905b8154815290600101906020018083116110c557829003601f168201915b5050505050908060040180546110f790612f56565b80601f016020809104026020016040519081016040528092919081815260200182805461112390612f56565b80156111705780601f1061114557610100808354040283529160200191611170565b820191906000526020600020905b81548152906001019060200180831161115357829003601f168201915b50505050509080600501805461118590612f56565b80601f01602080910402602001604051908101604052809291908181526020018280546111b190612f56565b80156111fe5780601f106111d3576101008083540402835291602001916111fe565b820191906000526020600020905b8154815290600101906020018083116111e157829003601f168201915b50505050509080600601805461121390612f56565b80601f016020809104026020016040519081016040528092919081815260200182805461123f90612f56565b801561128c5780601f106112615761010080835404028352916020019161128c565b820191906000526020600020905b81548152906001019060200180831161126f57829003601f168201915b5050505050908060070160009054906101000a900460ff16908060070160019054906101000a900460ff16908060080180546112c790612f56565b80601f01602080910402602001604051908101604052809291908181526020018280546112f390612f56565b80156113405780601f1061131557610100808354040283529160200191611340565b820191906000526020600020905b81548152906001019060200180831161132357829003601f168201915b505050505090508a565b60008054906101000a900473ffffffffffffffffffffffffffffffffffffffff1673ffffffffffffffffffffffffffffffffffffffff163373ffffffffffffffffffffffffffffffffffffffff16146113d8576040517f08c379a00000000000000000000000000000000000000000000000000000000081526004016113cf90612cab565b60405180910390fd5b600160008154809291906113eb90612f88565b919050555060006113fb83610fe1565b90506000604051806101400160405280838152602001600073ffffffffffffffffffffffffffffffffffffffff1681526020013373ffffffffffffffffffffffffffffffffffffffff1681526020018881526020018781526020018681526020018581526020016001600281111561149c577f4e487b7100000000000000000000000000000000000000000000000000000000600052602160045260246000fd5b81526020018460048111156114da577f4e487b7100000000000000000000000000000000000000000000000000000000600052602160045260246000fd5b81526020016040518060400160405280600181526020017f30000000000000000000000000000000000000000000000000000000000000008152508152509050600260003373ffffffffffffffffffffffffffffffffffffffff1673ffffffffffffffffffffffffffffffffffffffff1681526020019081526020016000208190806001815401808255809150506001900390600052602060002090600902016000909190919091506000820151816000015560208201518160010160006101000a81548173ffffffffffffffffffffffffffffffffffffffff021916908373ffffffffffffffffffffffffffffffffffffffff16021790555060408201518160020160006101000a81548173ffffffffffffffffffffffffffffffffffffffff021916908373ffffffffffffffffffffffffffffffffffffffff160217905550606082015181600301908051906020019061163792919061220d565b50608082015181600401908051906020019061165492919061220d565b5060a082015181600501908051906020019061167192919061220d565b5060c082015181600601908051906020019061168e92919061220d565b5060e08201518160070160006101000a81548160ff021916908360028111156116e0577f4e487b7100000000000000000000000000000000000000000000000000000000600052602160045260246000fd5b02179055506101008201518160070160016101000a81548160ff02191690836004811115611737577f4e487b7100000000000000000000000000000000000000000000000000000000600052602160045260246000fd5b021790555061012082015181600801908051906020019061175992919061220d565b50505080600360008481526020019081526020016000206000820151816000015560208201518160010160006101000a81548173ffffffffffffffffffffffffffffffffffffffff021916908373ffffffffffffffffffffffffffffffffffffffff16021790555060408201518160020160006101000a81548173ffffffffffffffffffffffffffffffffffffffff021916908373ffffffffffffffffffffffffffffffffffffffff160217905550606082015181600301908051906020019061182492919061220d565b50608082015181600401908051906020019061184192919061220d565b5060a082015181600501908051906020019061185e92919061220d565b5060c082015181600601908051906020019061187b92919061220d565b5060e08201518160070160006101000a81548160ff021916908360028111156118cd577f4e487b7100000000000000000000000000000000000000000000000000000000600052602160045260246000fd5b02179055506101008201518160070160016101000a81548160ff02191690836004811115611924577f4e487b7100000000000000000000000000000000000000000000000000000000600052602160045260246000fd5b021790555061012082015181600801908051906020019061194692919061220d565b509050503373ffffffffffffffffffffffffffffffffffffffff16827f8d7e4a9f5fdf9ee8f3bf08a1972ccf962a75a81c44fa618aa7f7882b5a14552f8989898989604051611999959493929190612bdc565b60405180910390a350505050505050565b60008054906101000a900473ffffffffffffffffffffffffffffffffffffffff1681565b600260205281600052604060002081815481106119ea57600080fd5b9060005260206000209060090201600091509150508060000154908060010160009054906101000a900473ffffffffffffffffffffffffffffffffffffffff16908060020160009054906101000a900473ffffffffffffffffffffffffffffffffffffffff1690806003018054611a6090612f56565b80601f0160208091040260200160405190810160405280929190818152602001828054611a8c90612f56565b8015611ad95780601f10611aae57610100808354040283529160200191611ad9565b820191906000526020600020905b815481529060010190602001808311611abc57829003601f168201915b505050505090806004018054611aee90612f56565b80601f0160208091040260200160405190810160405280929190818152602001828054611b1a90612f56565b8015611b675780601f10611b3c57610100808354040283529160200191611b67565b820191906000526020600020905b815481529060010190602001808311611b4a57829003601f168201915b505050505090806005018054611b7c90612f56565b80601f0160208091040260200160405190810160405280929190818152602001828054611ba890612f56565b8015611bf55780601f10611bca57610100808354040283529160200191611bf5565b820191906000526020600020905b815481529060010190602001808311611bd857829003601f168201915b505050505090806006018054611c0a90612f56565b80601f0160208091040260200160405190810160405280929190818152602001828054611c3690612f56565b8015611c835780601f10611c5857610100808354040283529160200191611c83565b820191906000526020600020905b815481529060010190602001808311611c6657829003601f168201915b5050505050908060070160009054906101000a900460ff16908060070160019054906101000a900460ff1690806008018054611cbe90612f56565b80601f0160208091040260200160405190810160405280929190818152602001828054611cea90612f56565b8015611d375780601f10611d0c57610100808354040283529160200191611d37565b820191906000526020600020905b815481529060010190602001808311611d1a57829003601f168201915b505050505090508a565b611d49612320565b6003600083815260200190815260200160002060405180610140016040529081600082015481526020016001820160009054906101000a900473ffffffffffffffffffffffffffffffffffffffff1673ffffffffffffffffffffffffffffffffffffffff1673ffffffffffffffffffffffffffffffffffffffff1681526020016002820160009054906101000a900473ffffffffffffffffffffffffffffffffffffffff1673ffffffffffffffffffffffffffffffffffffffff1673ffffffffffffffffffffffffffffffffffffffff168152602001600382018054611e2e90612f56565b80601f0160208091040260200160405190810160405280929190818152602001828054611e5a90612f56565b8015611ea75780601f10611e7c57610100808354040283529160200191611ea7565b820191906000526020600020905b815481529060010190602001808311611e8a57829003601f168201915b50505050508152602001600482018054611ec090612f56565b80601f0160208091040260200160405190810160405280929190818152602001828054611eec90612f56565b8015611f395780601f10611f0e57610100808354040283529160200191611f39565b820191906000526020600020905b815481529060010190602001808311611f1c57829003601f168201915b50505050508152602001600582018054611f5290612f56565b80601f0160208091040260200160405190810160405280929190818152602001828054611f7e90612f56565b8015611fcb5780601f10611fa057610100808354040283529160200191611fcb565b820191906000526020600020905b815481529060010190602001808311611fae57829003601f168201915b50505050508152602001600682018054611fe490612f56565b80601f016020809104026020016040519081016040528092919081815260200182805461201090612f56565b801561205d5780601f106120325761010080835404028352916020019161205d565b820191906000526020600020905b81548152906001019060200180831161204057829003601f168201915b505050505081526020016007820160009054906101000a900460ff1660028111156120b1577f4e487b7100000000000000000000000000000000000000000000000000000000600052602160045260246000fd5b60028111156120e9577f4e487b7100000000000000000000000000000000000000000000000000000000600052602160045260246000fd5b81526020016007820160019054906101000a900460ff166004811115612138577f4e487b7100000000000000000000000000000000000000000000000000000000600052602160045260246000fd5b6004811115612170577f4e487b7100000000000000000000000000000000000000000000000000000000600052602160045260246000fd5b815260200160088201805461218490612f56565b80601f01602080910402602001604051908101604052809291908181526020018280546121b090612f56565b80156121fd5780601f106121d2576101008083540402835291602001916121fd565b820191906000526020600020905b8154815290600101906020018083116121e057829003601f168201915b5050505050815250509050919050565b82805461221990612f56565b90600052602060002090601f01602090048101928261223b5760008555612282565b82601f1061225457805160ff1916838001178555612282565b82800160010185558215612282579182015b82811115612281578251825591602001919060010190612266565b5b50905061228f919061240f565b5090565b82805461229f90612f56565b90600052602060002090601f0160209004810192826122c1576000855561230f565b82601f106122d2578054855561230f565b8280016001018555821561230f57600052602060002091601f016020900482015b8281111561230e5782548255916001019190600101906122f3565b5b50905061231c919061240f565b5090565b60405180610140016040528060008152602001600073ffffffffffffffffffffffffffffffffffffffff168152602001600073ffffffffffffffffffffffffffffffffffffffff16815260200160608152602001606081526020016060815260200160608152602001600060028111156123c3577f4e487b7100000000000000000000000000000000000000000000000000000000600052602160045260246000fd5b815260200160006004811115612402577f4e487b7100000000000000000000000000000000000000000000000000000000600052602160045260246000fd5b8152602001606081525090565b5b80821115612428576000816000905550600101612410565b5090565b600061243f61243a84612df8565b612dc7565b90508281526020810184848401111561245757600080fd5b612462848285612f14565b509392505050565b600081359050612479816130c6565b92915050565b60008135905061248e816130dd565b92915050565b600082601f8301126124a557600080fd5b81356124b584826020860161242c565b91505092915050565b6000813590506124cd816130ed565b92915050565b6000602082840312156124e557600080fd5b60006124f38482850161246a565b91505092915050565b6000806040838503121561250f57600080fd5b600061251d8582860161246a565b925050602061252e858286016124be565b9150509250929050565b60006020828403121561254a57600080fd5b600082013567ffffffffffffffff81111561256457600080fd5b61257084828501612494565b91505092915050565b60008060006060848603121561258e57600080fd5b600084013567ffffffffffffffff8111156125a857600080fd5b6125b486828701612494565b93505060206125c58682870161246a565b925050604084013567ffffffffffffffff8111156125e257600080fd5b6125ee86828701612494565b9150509250925092565b600080600080600060a0868803121561261057600080fd5b600086013567ffffffffffffffff81111561262a57600080fd5b61263688828901612494565b955050602086013567ffffffffffffffff81111561265357600080fd5b61265f88828901612494565b945050604086013567ffffffffffffffff81111561267c57600080fd5b61268888828901612494565b935050606086013567ffffffffffffffff8111156126a557600080fd5b6126b188828901612494565b92505060806126c28882890161247f565b9150509295509295909350565b6000602082840312156126e157600080fd5b60006126ef848285016124be565b91505092915050565b60006127048383612973565b905092915050565b61271581612e8e565b82525050565b61272481612e8e565b82525050565b600061273582612e38565b61273f8185612e5b565b93508360208202850161275185612e28565b8060005b8581101561278d578484038952815161276e85826126f8565b945061277983612e4e565b925060208a01995050600181019050612755565b50829750879550505050505092915050565b6127a881612ef0565b82525050565b6127b781612ef0565b82525050565b6127c681612f02565b82525050565b6127d581612f02565b82525050565b60006127e682612e43565b6127f08185612e6c565b9350612800818560208601612f23565b6128098161308d565b840191505092915050565b600061281f82612e43565b6128298185612e7d565b9350612839818560208601612f23565b6128428161308d565b840191505092915050565b600061285a601683612e7d565b91507f4c616e64206973206e6f742072656769737465726564000000000000000000006000830152602082019050919050565b600061289a601983612e7d565b91507f496e76616c6964206e6577206f776e65722061646472657373000000000000006000830152602082019050919050565b60006128da602c83612e7d565b91507f4f6e6c79207468652063757272656e74206f776e65722063616e207472616e7360008301527f66657220746865206c616e6400000000000000000000000000000000000000006020830152604082019050919050565b6000612940601683612e7d565b91507f4e6f742074686520636f6e7472616374206f776e6572000000000000000000006000830152602082019050919050565b60006101408301600083015161298c6000860182612b5f565b50602083015161299f602086018261270c565b5060408301516129b2604086018261270c565b50606083015184820360608601526129ca82826127db565b915050608083015184820360808601526129e482826127db565b91505060a083015184820360a08601526129fe82826127db565b91505060c083015184820360c0860152612a1882826127db565b91505060e0830151612a2d60e086018261279f565b50610100830151612a426101008601826127bd565b50610120830151848203610120860152612a5c82826127db565b9150508091505092915050565b600061014083016000830151612a826000860182612b5f565b506020830151612a95602086018261270c565b506040830151612aa8604086018261270c565b5060608301518482036060860152612ac082826127db565b91505060808301518482036080860152612ada82826127db565b91505060a083015184820360a0860152612af482826127db565b91505060c083015184820360c0860152612b0e82826127db565b91505060e0830151612b2360e086018261279f565b50610100830151612b386101008601826127bd565b50610120830151848203610120860152612b5282826127db565b9150508091505092915050565b612b6881612ee6565b82525050565b612b7781612ee6565b82525050565b6000602082019050612b92600083018461271b565b92915050565b60006020820190508181036000830152612bb2818461272a565b905092915050565b60006020820190508181036000830152612bd48184612814565b905092915050565b600060a0820190508181036000830152612bf68188612814565b90508181036020830152612c0a8187612814565b90508181036040830152612c1e8186612814565b90508181036060830152612c328185612814565b9050612c4160808301846127cc565b9695505050505050565b60006020820190508181036000830152612c648161284d565b9050919050565b60006020820190508181036000830152612c848161288d565b9050919050565b60006020820190508181036000830152612ca4816128cd565b9050919050565b60006020820190508181036000830152612cc481612933565b9050919050565b60006020820190508181036000830152612ce58184612a69565b905092915050565b6000602082019050612d026000830184612b6e565b92915050565b600061014082019050612d1e600083018d612b6e565b612d2b602083018c61271b565b612d38604083018b61271b565b8181036060830152612d4a818a612814565b90508181036080830152612d5e8189612814565b905081810360a0830152612d728188612814565b905081810360c0830152612d868187612814565b9050612d9560e08301866127ae565b612da36101008301856127cc565b818103610120830152612db68184612814565b90509b9a5050505050505050505050565b6000604051905081810181811067ffffffffffffffff82111715612dee57612ded61305e565b5b8060405250919050565b600067ffffffffffffffff821115612e1357612e1261305e565b5b601f19601f8301169050602081019050919050565b6000819050602082019050919050565b600081519050919050565b600081519050919050565b6000602082019050919050565b600082825260208201905092915050565b600082825260208201905092915050565b600082825260208201905092915050565b6000612e9982612ec6565b9050919050565b6000819050612eae8261309e565b919050565b6000819050612ec1826130b2565b919050565b600073ffffffffffffffffffffffffffffffffffffffff82169050919050565b6000819050919050565b6000612efb82612ea0565b9050919050565b6000612f0d82612eb3565b9050919050565b82818337600083830152505050565b60005b83811015612f41578082015181840152602081019050612f26565b83811115612f50576000848401525b50505050565b60006002820490506001821680612f6e57607f821691505b60208210811415612f8257612f8161302f565b5b50919050565b6000612f9382612ee6565b91507fffffffffffffffffffffffffffffffffffffffffffffffffffffffffffffffff821415612fc657612fc5612fd1565b5b600182019050919050565b7f4e487b7100000000000000000000000000000000000000000000000000000000600052601160045260246000fd5b7f4e487b7100000000000000000000000000000000000000000000000000000000600052602160045260246000fd5b7f4e487b7100000000000000000000000000000000000000000000000000000000600052602260045260246000fd5b7f4e487b7100000000000000000000000000000000000000000000000000000000600052604160045260246000fd5b6000601f19601f8301169050919050565b600381106130af576130ae613000565b5b50565b600581106130c3576130c2613000565b5b50565b6130cf81612e8e565b81146130da57600080fd5b50565b600581106130ea57600080fd5b50565b6130f681612ee6565b811461310157600080fd5b5056fea264697066735822122098ef97a465b5621f43f06bd82cb17efea15fdd5beb186d346a18d4c50737690564736f6c63430008000033",
  "linkReferences": {},
  "deployedLinkReferences": {}
}