{
  "_format": "hh-sol-artifact-1",
  "contractName": "LandRegistery",
  "sourceName": "contracts/LandRegistery.sol",
  "abi": [
    {
      "inputs": [],
      "stateMutability": "nonpayable",
      "type": "constructor"
    },
    {
      "anonymous": false,
      "inputs": [
        {
          "indexed": true,
          "internalType": "uint256",
          "name": "landId",
          "type": "uint256"
        },
        {
          "indexed": true,
          "internalType": "address",
          "name": "owner",
          "type": "address"
        },
        {
          "indexed": false,
          "internalType": "string",
          "name": "location",
          "type": "string"
        },
        {
          "indexed": false,
          "internalType": "string",
          "name": "area",
          "type": "string"
        },
        {
          "indexed": false,
          "internalType": "string",
          "name": "dimensionOfLand",
          "type": "string"
        },
        {
          "indexed": false,
          "internalType": "string",
          "name": "landIdentificationNumber",
          "type": "string"
        },
        {
          "indexed": false,
          "internalType": "enum LandRegistery.LandType",
          "name": "landType",
          "type": "uint8"
        }
      ],
      "name": "LandRegistered",
      "type": "event"
    },
    {
      "anonymous": false,
      "inputs": [
        {
          "indexed": true,
          "internalType": "uint256",
          "name": "landId",
          "type": "uint256"
        },
        {
          "indexed": true,
          "internalType": "address",
          "name": "from",
          "type": "address"
        },
        {
          "indexed": true,
          "internalType": "address",
          "name": "to",
          "type": "address"
        },
        {
          "indexed": false,
          "internalType": "string",
          "name": "transferAmount",
          "type": "string"
        }
      ],
      "name": "LandTransferred",
      "type": "event"
    },
    {
      "inputs": [
        {
          "internalType": "uint256",
          "name": "",
          "type": "uint256"
        }
      ],
      "name": "allLands",
      "outputs": [
        {
          "internalType": "uint256",
          "name": "landId",
          "type": "uint256"
        },
        {
          "internalType": "address",
          "name": "prevOwner",
          "type": "address"
        },
        {
          "internalType": "address",
          "name": "currentOwner",
          "type": "address"
        },
        {
          "internalType": "string",
          "name": "location",
          "type": "string"
        },
        {
          "internalType": "string",
          "name": "area",
          "type": "string"
        },
        {
          "internalType": "string",
          "name": "dimensionOfLand",
          "type": "string"
        },
        {
          "internalType": "string",
          "name": "landIdentificationNumber",
          "type": "string"
        },
        {
          "internalType": "enum LandRegistery.LandStatus",
          "name": "status",
          "type": "uint8"
        },
        {
          "internalType": "enum LandRegistery.LandType",
          "name": "landType",
          "type": "uint8"
        },
        {
          "internalType": "string",
          "name": "transferAmount",
          "type": "string"
        }
      ],
      "stateMutability": "view",
      "type": "function"
    },
    {
      "inputs": [
        {
          "internalType": "uint256",
          "name": "_landId",
          "type": "uint256"
        }
      ],
      "name": "getLandDetails",
      "outputs": [
        {
          "components": [
            {
              "internalType": "uint256",
              "name": "landId",
              "type": "uint256"
            },
            {
              "internalType": "address",
              "name": "prevOwner",
              "type": "address"
            },
            {
              "internalType": "address",
              "name": "currentOwner",
              "type": "address"
            },
            {
              "internalType": "string",
              "name": "location",
              "type": "string"
            },
            {
              "internalType": "string",
              "name": "area",
              "type": "string"
            },
            {
              "internalType": "string",
              "name": "dimensionOfLand",
              "type": "string"
            },
            {
              "internalType": "string",
              "name": "landIdentificationNumber",
              "type": "string"
            },
            {
              "internalType": "enum LandRegistery.LandStatus",
              "name": "status",
              "type": "uint8"
            },
            {
              "internalType": "enum LandRegistery.LandType",
              "name": "landType",
              "type": "uint8"
            },
            {
              "internalType": "string",
              "name": "transferAmount",
              "type": "string"
            }
          ],
          "internalType": "struct LandRegistery.Land",
          "name": "",
          "type": "tuple"
        }
      ],
      "stateMutability": "view",
      "type": "function"
    },
    {
      "inputs": [
        {
          "internalType": "address",
          "name": "_userAddress",
          "type": "address"
        }
      ],
      "name": "getUserLands",
      "outputs": [
        {
          "components": [
            {
              "internalType": "uint256",
              "name": "landId",
              "type": "uint256"
            },
            {
              "internalType": "address",
              "name": "prevOwner",
              "type": "address"
            },
            {
              "internalType": "address",
              "name": "currentOwner",
              "type": "address"
            },
            {
              "internalType": "string",
              "name": "location",
              "type": "string"
            },
            {
              "internalType": "string",
              "name": "area",
              "type": "string"
            },
            {
              "internalType": "string",
              "name": "dimensionOfLand",
              "type": "string"
            },
            {
              "internalType": "string",
              "name": "landIdentificationNumber",
              "type": "string"
            },
            {
              "internalType": "enum LandRegistery.LandStatus",
              "name": "status",
              "type": "uint8"
            },
            {
              "internalType": "enum LandRegistery.LandType",
              "name": "landType",
              "type": "uint8"
            },
            {
              "internalType": "string",
              "name": "transferAmount",
              "type": "string"
            }
          ],
          "internalType": "struct LandRegistery.Land[]",
          "name": "",
          "type": "tuple[]"
        }
      ],
      "stateMutability": "view",
      "type": "function"
    },
    {
      "inputs": [],
      "name": "owner",
      "outputs": [
        {
          "internalType": "address",
          "name": "",
          "type": "address"
        }
      ],
      "stateMutability": "view",
      "type": "function"
    },
    {
      "inputs": [
        {
          "internalType": "string",
          "name": "input",
          "type": "string"
        }
      ],
      "name": "parseAndConvert",
      "outputs": [
        {
          "internalType": "uint256",
          "name": "",
          "type": "uint256"
        }
      ],
      "stateMutability": "pure",
      "type": "function"
    },
    {
      "inputs": [
        {
          "internalType": "string",
          "name": "_location",
          "type": "string"
        },
        {
          "internalType": "string",
          "name": "_area",
          "type": "string"
        },
        {
          "internalType": "string",
          "name": "_dimensionOfLand",
          "type": "string"
        },
        {
          "internalType": "string",
          "name": "_landIdentificationNumber",
          "type": "string"
        },
        {
          "internalType": "enum LandRegistery.LandType",
          "name": "_landType",
          "type": "uint8"
        }
      ],
      "name": "registerLand",
      "outputs": [],
      "stateMutability": "nonpayable",
      "type": "function"
    },
    {
      "inputs": [
        {
          "internalType": "uint256",
          "name": "_landId",
          "type": "uint256"
        },
        {
          "internalType": "address",
          "name": "_newOwner",
          "type": "address"
        },
        {
          "internalType": "string",
          "name": "_transferAmount",
          "type": "string"
        }
      ],
      "name": "transferLand",
      "outputs": [],
      "stateMutability": "nonpayable",
      "type": "function"
    },
    {
      "inputs": [
        {
          "internalType": "address",
          "name": "",
          "type": "address"
        },
        {
          "internalType": "uint256",
          "name": "",
          "type": "uint256"
        }
      ],
      "name": "userLands",
      "outputs": [
        {
          "internalType": "uint256",
          "name": "landId",
          "type": "uint256"
        },
        {
          "internalType": "address",
          "name": "prevOwner",
          "type": "address"
        },
        {
          "internalType": "address",
          "name": "currentOwner",
          "type": "address"
        },
        {
          "internalType": "string",
          "name": "location",
          "type": "string"
        },
        {
          "internalType": "string",
          "name": "area",
          "type": "string"
        },
        {
          "internalType": "string",
          "name": "dimensionOfLand",
          "type": "string"
        },
        {
          "internalType": "string",
          "name": "landIdentificationNumber",
          "type": "string"
        },
        {
          "internalType": "enum LandRegistery.LandStatus",
          "name": "status",
          "type": "uint8"
        },
        {
          "internalType": "enum LandRegistery.LandType",
          "name": "landType",
          "type": "uint8"
        },
        {
          "internalType": "string",
          "name": "transferAmount",
          "type": "string"
        }
      ],
      "stateMutability": "view",
      "type": "function"
    }
  ],
  "bytecode": "0x6080604052600060015534801561001557600080fd5b50336000806101000a81548173ffffffffffffffffffffffffffffffffffffffff021916908373ffffffffffffffffffffffffffffffffffffffff160217905550612a82806100656000396000f3fe608060405234801561001057600080fd5b50600436106100885760003560e01c80636623771e1161005b5780636623771e146101425780638da5cb5b1461015e578063dc219adc1461017c578063fe0cb7dc146101b557610088565b806328bf5ef51461008d57806339ddfe24146100bd5780633ea73ae6146100d957806341697be014610109575b600080fd5b6100a760048036038101906100a29190611e93565b6101e5565b6040516100b49190612500565b60405180910390f35b6100d760048036038101906100d29190612039565b610722565b005b6100f360048036038101906100ee9190611ef8565b610a2e565b6040516101009190612635565b60405180910390f35b610123600480360381019061011e9190612010565b610a41565b6040516101399a99989796959493929190612650565b60405180910390f35b61015c60048036038101906101579190611f39565b610d97565b005b6101666113f7565b60405161017391906124e5565b60405180910390f35b61019660048036038101906101919190611ebc565b61141b565b6040516101ac9a99989796959493929190612650565b60405180910390f35b6101cf60048036038101906101ca9190612010565b61178e565b6040516101dc9190612613565b60405180910390f35b6060600260008373ffffffffffffffffffffffffffffffffffffffff1673ffffffffffffffffffffffffffffffffffffffff168152602001908152602001600020805480602002602001604051908101604052809291908181526020016000905b82821015610717578382906000526020600020906009020160405180610140016040529081600082015481526020016001820160009054906101000a900473ffffffffffffffffffffffffffffffffffffffff1673ffffffffffffffffffffffffffffffffffffffff1673ffffffffffffffffffffffffffffffffffffffff1681526020016002820160009054906101000a900473ffffffffffffffffffffffffffffffffffffffff1673ffffffffffffffffffffffffffffffffffffffff1673ffffffffffffffffffffffffffffffffffffffff1681526020016003820180546103309061289e565b80601f016020809104026020016040519081016040528092919081815260200182805461035c9061289e565b80156103a95780601f1061037e576101008083540402835291602001916103a9565b820191906000526020600020905b81548152906001019060200180831161038c57829003601f168201915b505050505081526020016004820180546103c29061289e565b80601f01602080910402602001604051908101604052809291908181526020018280546103ee9061289e565b801561043b5780601f106104105761010080835404028352916020019161043b565b820191906000526020600020905b81548152906001019060200180831161041e57829003601f168201915b505050505081526020016005820180546104549061289e565b80601f01602080910402602001604051908101604052809291908181526020018280546104809061289e565b80156104cd5780601f106104a2576101008083540402835291602001916104cd565b820191906000526020600020905b8154815290600101906020018083116104b057829003601f168201915b505050505081526020016006820180546104e69061289e565b80601f01602080910402602001604051908101604052809291908181526020018280546105129061289e565b801561055f5780601f106105345761010080835404028352916020019161055f565b820191906000526020600020905b81548152906001019060200180831161054257829003601f168201915b505050505081526020016007820160009054906101000a900460ff1660028111156105b3577f4e487b7100000000000000000000000000000000000000000000000000000000600052602160045260246000fd5b60028111156105eb577f4e487b7100000000000000000000000000000000000000000000000000000000600052602160045260246000fd5b81526020016007820160019054906101000a900460ff16600481111561063a577f4e487b7100000000000000000000000000000000000000000000000000000000600052602160045260246000fd5b6004811115610672577f4e487b7100000000000000000000000000000000000000000000000000000000600052602160045260246000fd5b81526020016008820180546106869061289e565b80601f01602080910402602001604051908101604052809291908181526020018280546106b29061289e565b80156106ff5780601f106106d4576101008083540402835291602001916106ff565b820191906000526020600020905b8154815290600101906020018083116106e257829003601f168201915b50505050508152505081526020019060010190610246565b505050509050919050565b60008054906101000a900473ffffffffffffffffffffffffffffffffffffffff1673ffffffffffffffffffffffffffffffffffffffff163373ffffffffffffffffffffffffffffffffffffffff16146107b0576040517f08c379a00000000000000000000000000000000000000000000000000000000081526004016107a7906125f3565b60405180910390fd5b826000811180156107c357506001548111155b610802576040517f08c379a00000000000000000000000000000000000000000000000000000000081526004016107f9906125d3565b60405180910390fd5b60006003600086815260200190815260200160002090503373ffffffffffffffffffffffffffffffffffffffff168160020160009054906101000a900473ffffffffffffffffffffffffffffffffffffffff1673ffffffffffffffffffffffffffffffffffffffff16146108ab576040517f08c379a00000000000000000000000000000000000000000000000000000000081526004016108a2906125b3565b60405180910390fd5b8060020160009054906101000a900473ffffffffffffffffffffffffffffffffffffffff168160010160006101000a81548173ffffffffffffffffffffffffffffffffffffffff021916908373ffffffffffffffffffffffffffffffffffffffff160217905550838160020160006101000a81548173ffffffffffffffffffffffffffffffffffffffff021916908373ffffffffffffffffffffffffffffffffffffffff16021790555060028160070160006101000a81548160ff021916908360028111156109a3577f4e487b7100000000000000000000000000000000000000000000000000000000600052602160045260246000fd5b0217905550828160080190805190602001906109c0929190611c5a565b508373ffffffffffffffffffffffffffffffffffffffff163373ffffffffffffffffffffffffffffffffffffffff16867fc4047e06cead7bf10729ec5fd49ab0b51199099f985bd6bdbe3520655246381c86604051610a1f9190612522565b60405180910390a45050505050565b6000806020830151905080915050919050565b60036020528060005260406000206000915090508060000154908060010160009054906101000a900473ffffffffffffffffffffffffffffffffffffffff16908060020160009054906101000a900473ffffffffffffffffffffffffffffffffffffffff1690806003018054610ab69061289e565b80601f0160208091040260200160405190810160405280929190818152602001828054610ae29061289e565b8015610b2f5780601f10610b0457610100808354040283529160200191610b2f565b820191906000526020600020905b815481529060010190602001808311610b1257829003601f168201915b505050505090806004018054610b449061289e565b80601f0160208091040260200160405190810160405280929190818152602001828054610b709061289e565b8015610bbd5780601f10610b9257610100808354040283529160200191610bbd565b820191906000526020600020905b815481529060010190602001808311610ba057829003601f168201915b505050505090806005018054610bd29061289e565b80601f0160208091040260200160405190810160405280929190818152602001828054610bfe9061289e565b8015610c4b5780601f10610c2057610100808354040283529160200191610c4b565b820191906000526020600020905b815481529060010190602001808311610c2e57829003601f168201915b505050505090806006018054610c609061289e565b80601f0160208091040260200160405190810160405280929190818152602001828054610c8c9061289e565b8015610cd95780601f10610cae57610100808354040283529160200191610cd9565b820191906000526020600020905b815481529060010190602001808311610cbc57829003601f168201915b5050505050908060070160009054906101000a900460ff16908060070160019054906101000a900460ff1690806008018054610d149061289e565b80601f0160208091040260200160405190810160405280929190818152602001828054610d409061289e565b8015610d8d5780601f10610d6257610100808354040283529160200191610d8d565b820191906000526020600020905b815481529060010190602001808311610d7057829003601f168201915b505050505090508a565b60008054906101000a900473ffffffffffffffffffffffffffffffffffffffff1673ffffffffffffffffffffffffffffffffffffffff163373ffffffffffffffffffffffffffffffffffffffff1614610e25576040517f08c379a0000000000000000000000000000000000000000000000000000000008152600401610e1c906125f3565b60405180910390fd5b60016000815480929190610e38906128d0565b91905055506000610e4883610a2e565b90506000604051806101400160405280838152602001600073ffffffffffffffffffffffffffffffffffffffff1681526020013373ffffffffffffffffffffffffffffffffffffffff16815260200188815260200187815260200186815260200185815260200160016002811115610ee9577f4e487b7100000000000000000000000000000000000000000000000000000000600052602160045260246000fd5b8152602001846004811115610f27577f4e487b7100000000000000000000000000000000000000000000000000000000600052602160045260246000fd5b81526020016040518060400160405280600181526020017f30000000000000000000000000000000000000000000000000000000000000008152508152509050600260003373ffffffffffffffffffffffffffffffffffffffff1673ffffffffffffffffffffffffffffffffffffffff1681526020019081526020016000208190806001815401808255809150506001900390600052602060002090600902016000909190919091506000820151816000015560208201518160010160006101000a81548173ffffffffffffffffffffffffffffffffffffffff021916908373ffffffffffffffffffffffffffffffffffffffff16021790555060408201518160020160006101000a81548173ffffffffffffffffffffffffffffffffffffffff021916908373ffffffffffffffffffffffffffffffffffffffff1602179055506060820151816003019080519060200190611084929190611c5a565b5060808201518160040190805190602001906110a1929190611c5a565b5060a08201518160050190805190602001906110be929190611c5a565b5060c08201518160060190805190602001906110db929190611c5a565b5060e08201518160070160006101000a81548160ff0219169083600281111561112d577f4e487b7100000000000000000000000000000000000000000000000000000000600052602160045260246000fd5b02179055506101008201518160070160016101000a81548160ff02191690836004811115611184577f4e487b7100000000000000000000000000000000000000000000000000000000600052602160045260246000fd5b02179055506101208201518160080190805190602001906111a6929190611c5a565b50505080600360008481526020019081526020016000206000820151816000015560208201518160010160006101000a81548173ffffffffffffffffffffffffffffffffffffffff021916908373ffffffffffffffffffffffffffffffffffffffff16021790555060408201518160020160006101000a81548173ffffffffffffffffffffffffffffffffffffffff021916908373ffffffffffffffffffffffffffffffffffffffff1602179055506060820151816003019080519060200190611271929190611c5a565b50608082015181600401908051906020019061128e929190611c5a565b5060a08201518160050190805190602001906112ab929190611c5a565b5060c08201518160060190805190602001906112c8929190611c5a565b5060e08201518160070160006101000a81548160ff0219169083600281111561131a577f4e487b7100000000000000000000000000000000000000000000000000000000600052602160045260246000fd5b02179055506101008201518160070160016101000a81548160ff02191690836004811115611371577f4e487b7100000000000000000000000000000000000000000000000000000000600052602160045260246000fd5b0217905550610120820151816008019080519060200190611393929190611c5a565b509050503373ffffffffffffffffffffffffffffffffffffffff16827f8d7e4a9f5fdf9ee8f3bf08a1972ccf962a75a81c44fa618aa7f7882b5a14552f89898989896040516113e6959493929190612544565b60405180910390a350505050505050565b60008054906101000a900473ffffffffffffffffffffffffffffffffffffffff1681565b6002602052816000526040600020818154811061143757600080fd5b9060005260206000209060090201600091509150508060000154908060010160009054906101000a900473ffffffffffffffffffffffffffffffffffffffff16908060020160009054906101000a900473ffffffffffffffffffffffffffffffffffffffff16908060030180546114ad9061289e565b80601f01602080910402602001604051908101604052809291908181526020018280546114d99061289e565b80156115265780601f106114fb57610100808354040283529160200191611526565b820191906000526020600020905b81548152906001019060200180831161150957829003601f168201915b50505050509080600401805461153b9061289e565b80601f01602080910402602001604051908101604052809291908181526020018280546115679061289e565b80156115b45780601f10611589576101008083540402835291602001916115b4565b820191906000526020600020905b81548152906001019060200180831161159757829003601f168201915b5050505050908060050180546115c99061289e565b80601f01602080910402602001604051908101604052809291908181526020018280546115f59061289e565b80156116425780601f1061161757610100808354040283529160200191611642565b820191906000526020600020905b81548152906001019060200180831161162557829003601f168201915b5050505050908060060180546116579061289e565b80601f01602080910402602001604051908101604052809291908181526020018280546116839061289e565b80156116d05780601f106116a5576101008083540402835291602001916116d0565b820191906000526020600020905b8154815290600101906020018083116116b357829003601f168201915b5050505050908060070160009054906101000a900460ff16908060070160019054906101000a900460ff169080600801805461170b9061289e565b80601f01602080910402602001604051908101604052809291908181526020018280546117379061289e565b80156117845780601f1061175957610100808354040283529160200191611784565b820191906000526020600020905b81548152906001019060200180831161176757829003601f168201915b505050505090508a565b611796611ce0565b6003600083815260200190815260200160002060405180610140016040529081600082015481526020016001820160009054906101000a900473ffffffffffffffffffffffffffffffffffffffff1673ffffffffffffffffffffffffffffffffffffffff1673ffffffffffffffffffffffffffffffffffffffff1681526020016002820160009054906101000a900473ffffffffffffffffffffffffffffffffffffffff1673ffffffffffffffffffffffffffffffffffffffff1673ffffffffffffffffffffffffffffffffffffffff16815260200160038201805461187b9061289e565b80601f01602080910402602001604051908101604052809291908181526020018280546118a79061289e565b80156118f45780601f106118c9576101008083540402835291602001916118f4565b820191906000526020600020905b8154815290600101906020018083116118d757829003601f168201915b5050505050815260200160048201805461190d9061289e565b80601f01602080910402602001604051908101604052809291908181526020018280546119399061289e565b80156119865780601f1061195b57610100808354040283529160200191611986565b820191906000526020600020905b81548152906001019060200180831161196957829003601f168201915b5050505050815260200160058201805461199f9061289e565b80601f01602080910402602001604051908101604052809291908181526020018280546119cb9061289e565b8015611a185780601f106119ed57610100808354040283529160200191611a18565b820191906000526020600020905b8154815290600101906020018083116119fb57829003601f168201915b50505050508152602001600682018054611a319061289e565b80601f0160208091040260200160405190810160405280929190818152602001828054611a5d9061289e565b8015611aaa5780601f10611a7f57610100808354040283529160200191611aaa565b820191906000526020600020905b815481529060010190602001808311611a8d57829003601f168201915b505050505081526020016007820160009054906101000a900460ff166002811115611afe577f4e487b7100000000000000000000000000000000000000000000000000000000600052602160045260246000fd5b6002811115611b36577f4e487b7100000000000000000000000000000000000000000000000000000000600052602160045260246000fd5b81526020016007820160019054906101000a900460ff166004811115611b85577f4e487b7100000000000000000000000000000000000000000000000000000000600052602160045260246000fd5b6004811115611bbd577f4e487b7100000000000000000000000000000000000000000000000000000000600052602160045260246000fd5b8152602001600882018054611bd19061289e565b80601f0160208091040260200160405190810160405280929190818152602001828054611bfd9061289e565b8015611c4a5780601f10611c1f57610100808354040283529160200191611c4a565b820191906000526020600020905b815481529060010190602001808311611c2d57829003601f168201915b5050505050815250509050919050565b828054611c669061289e565b90600052602060002090601f016020900481019282611c885760008555611ccf565b82601f10611ca157805160ff1916838001178555611ccf565b82800160010185558215611ccf579182015b82811115611cce578251825591602001919060010190611cb3565b5b509050611cdc9190611dcf565b5090565b60405180610140016040528060008152602001600073ffffffffffffffffffffffffffffffffffffffff168152602001600073ffffffffffffffffffffffffffffffffffffffff1681526020016060815260200160608152602001606081526020016060815260200160006002811115611d83577f4e487b7100000000000000000000000000000000000000000000000000000000600052602160045260246000fd5b815260200160006004811115611dc2577f4e487b7100000000000000000000000000000000000000000000000000000000600052602160045260246000fd5b8152602001606081525090565b5b80821115611de8576000816000905550600101611dd0565b5090565b6000611dff611dfa84612740565b61270f565b905082815260208101848484011115611e1757600080fd5b611e2284828561285c565b509392505050565b600081359050611e3981612a0e565b92915050565b600081359050611e4e81612a25565b92915050565b600082601f830112611e6557600080fd5b8135611e75848260208601611dec565b91505092915050565b600081359050611e8d81612a35565b92915050565b600060208284031215611ea557600080fd5b6000611eb384828501611e2a565b91505092915050565b60008060408385031215611ecf57600080fd5b6000611edd85828601611e2a565b9250506020611eee85828601611e7e565b9150509250929050565b600060208284031215611f0a57600080fd5b600082013567ffffffffffffffff811115611f2457600080fd5b611f3084828501611e54565b91505092915050565b600080600080600060a08688031215611f5157600080fd5b600086013567ffffffffffffffff811115611f6b57600080fd5b611f7788828901611e54565b955050602086013567ffffffffffffffff811115611f9457600080fd5b611fa088828901611e54565b945050604086013567ffffffffffffffff811115611fbd57600080fd5b611fc988828901611e54565b935050606086013567ffffffffffffffff811115611fe657600080fd5b611ff288828901611e54565b925050608061200388828901611e3f565b9150509295509295909350565b60006020828403121561202257600080fd5b600061203084828501611e7e565b91505092915050565b60008060006060848603121561204e57600080fd5b600061205c86828701611e7e565b935050602061206d86828701611e2a565b925050604084013567ffffffffffffffff81111561208a57600080fd5b61209686828701611e54565b9150509250925092565b60006120ac83836122db565b905092915050565b6120bd816127d6565b82525050565b6120cc816127d6565b82525050565b60006120dd82612780565b6120e781856127a3565b9350836020820285016120f985612770565b8060005b85811015612135578484038952815161211685826120a0565b945061212183612796565b925060208a019950506001810190506120fd565b50829750879550505050505092915050565b61215081612838565b82525050565b61215f81612838565b82525050565b61216e8161284a565b82525050565b61217d8161284a565b82525050565b600061218e8261278b565b61219881856127b4565b93506121a881856020860161286b565b6121b1816129d5565b840191505092915050565b60006121c78261278b565b6121d181856127c5565b93506121e181856020860161286b565b6121ea816129d5565b840191505092915050565b6000612202602a836127c5565b91507f596f7520617265206e6f74207468652063757272656e74206f776e6572206f6660008301527f2074686973206c616e64000000000000000000000000000000000000000000006020830152604082019050919050565b60006122686013836127c5565b91507f4c616e6420646f6573206e6f74206578697374000000000000000000000000006000830152602082019050919050565b60006122a86016836127c5565b91507f4e6f742074686520636f6e7472616374206f776e6572000000000000000000006000830152602082019050919050565b6000610140830160008301516122f460008601826124c7565b50602083015161230760208601826120b4565b50604083015161231a60408601826120b4565b50606083015184820360608601526123328282612183565b9150506080830151848203608086015261234c8282612183565b91505060a083015184820360a08601526123668282612183565b91505060c083015184820360c08601526123808282612183565b91505060e083015161239560e0860182612147565b506101008301516123aa610100860182612165565b506101208301518482036101208601526123c48282612183565b9150508091505092915050565b6000610140830160008301516123ea60008601826124c7565b5060208301516123fd60208601826120b4565b50604083015161241060408601826120b4565b50606083015184820360608601526124288282612183565b915050608083015184820360808601526124428282612183565b91505060a083015184820360a086015261245c8282612183565b91505060c083015184820360c08601526124768282612183565b91505060e083015161248b60e0860182612147565b506101008301516124a0610100860182612165565b506101208301518482036101208601526124ba8282612183565b9150508091505092915050565b6124d08161282e565b82525050565b6124df8161282e565b82525050565b60006020820190506124fa60008301846120c3565b92915050565b6000602082019050818103600083015261251a81846120d2565b905092915050565b6000602082019050818103600083015261253c81846121bc565b905092915050565b600060a082019050818103600083015261255e81886121bc565b9050818103602083015261257281876121bc565b9050818103604083015261258681866121bc565b9050818103606083015261259a81856121bc565b90506125a96080830184612174565b9695505050505050565b600060208201905081810360008301526125cc816121f5565b9050919050565b600060208201905081810360008301526125ec8161225b565b9050919050565b6000602082019050818103600083015261260c8161229b565b9050919050565b6000602082019050818103600083015261262d81846123d1565b905092915050565b600060208201905061264a60008301846124d6565b92915050565b600061014082019050612666600083018d6124d6565b612673602083018c6120c3565b612680604083018b6120c3565b8181036060830152612692818a6121bc565b905081810360808301526126a681896121bc565b905081810360a08301526126ba81886121bc565b905081810360c08301526126ce81876121bc565b90506126dd60e0830186612156565b6126eb610100830185612174565b8181036101208301526126fe81846121bc565b90509b9a5050505050505050505050565b6000604051905081810181811067ffffffffffffffff82111715612736576127356129a6565b5b8060405250919050565b600067ffffffffffffffff82111561275b5761275a6129a6565b5b601f19601f8301169050602081019050919050565b6000819050602082019050919050565b600081519050919050565b600081519050919050565b6000602082019050919050565b600082825260208201905092915050565b600082825260208201905092915050565b600082825260208201905092915050565b60006127e18261280e565b9050919050565b60008190506127f6826129e6565b919050565b6000819050612809826129fa565b919050565b600073ffffffffffffffffffffffffffffffffffffffff82169050919050565b6000819050919050565b6000612843826127e8565b9050919050565b6000612855826127fb565b9050919050565b82818337600083830152505050565b60005b8381101561288957808201518184015260208101905061286e565b83811115612898576000848401525b50505050565b600060028204905060018216806128b657607f821691505b602082108114156128ca576128c9612977565b5b50919050565b60006128db8261282e565b91507fffffffffffffffffffffffffffffffffffffffffffffffffffffffffffffffff82141561290e5761290d612919565b5b600182019050919050565b7f4e487b7100000000000000000000000000000000000000000000000000000000600052601160045260246000fd5b7f4e487b7100000000000000000000000000000000000000000000000000000000600052602160045260246000fd5b7f4e487b7100000000000000000000000000000000000000000000000000000000600052602260045260246000fd5b7f4e487b7100000000000000000000000000000000000000000000000000000000600052604160045260246000fd5b6000601f19601f8301169050919050565b600381106129f7576129f6612948565b5b50565b60058110612a0b57612a0a612948565b5b50565b612a17816127d6565b8114612a2257600080fd5b50565b60058110612a3257600080fd5b50565b612a3e8161282e565b8114612a4957600080fd5b5056fea2646970667358221220c37e349601b8d66ed0b8b3ff3fe846c1f0d6c6df58975e1740205a80f39d2b5e64736f6c63430008000033",
  "linkReferences": {},
  "deployedLinkReferences": {}
}